{
  "_format": "hh-sol-artifact-1",
  "contractName": "Ballot",
  "sourceName": "contracts/Ballot.sol",
  "abi": [
    {
      "inputs": [
        {
          "internalType": "string[]",
          "name": "proposalNames",
          "type": "string[]"
        },
        {
          "internalType": "string",
          "name": "descriptionStr",
          "type": "string"
        }
      ],
      "stateMutability": "nonpayable",
      "type": "constructor"
    },
    {
      "anonymous": false,
      "inputs": [
        {
          "indexed": true,
          "internalType": "address",
          "name": "from",
          "type": "address"
        },
        {
          "indexed": false,
          "internalType": "string",
          "name": "proposal",
          "type": "string"
        }
      ],
      "name": "VoteLog",
      "type": "event"
    },
    {
      "inputs": [
        {
          "internalType": "uint256",
          "name": "",
          "type": "uint256"
        }
      ],
      "name": "alreadyVoted",
      "outputs": [
        {
          "internalType": "address",
          "name": "",
          "type": "address"
        }
      ],
      "stateMutability": "view",
      "type": "function"
    },
    {
      "inputs": [
        {
          "internalType": "address",
          "name": "voter",
          "type": "address"
        }
      ],
      "name": "checkExistingVoter",
      "outputs": [
        {
          "internalType": "bool",
          "name": "existingVoter",
          "type": "bool"
        }
      ],
      "stateMutability": "view",
      "type": "function"
    },
    {
      "inputs": [],
      "name": "getDescription",
      "outputs": [
        {
          "internalType": "string",
          "name": "",
          "type": "string"
        }
      ],
      "stateMutability": "view",
      "type": "function"
    },
    {
      "inputs": [],
      "name": "getProposals",
      "outputs": [
        {
          "components": [
            {
              "internalType": "string",
              "name": "name",
              "type": "string"
            }
          ],
          "internalType": "struct Ballot.Proposal[]",
          "name": "",
          "type": "tuple[]"
        }
      ],
      "stateMutability": "view",
      "type": "function"
    },
    {
      "inputs": [],
      "name": "getVote",
      "outputs": [
        {
          "internalType": "uint256",
          "name": "result",
          "type": "uint256"
        }
      ],
      "stateMutability": "view",
      "type": "function"
    },
    {
      "inputs": [
        {
          "internalType": "uint256",
          "name": "proposal",
          "type": "uint256"
        }
      ],
      "name": "proposalSupporters",
      "outputs": [
        {
          "components": [
            {
              "internalType": "string",
              "name": "name",
              "type": "string"
            }
          ],
          "internalType": "struct Ballot.Proposal",
          "name": "",
          "type": "tuple"
        },
        {
          "internalType": "address[]",
          "name": "",
          "type": "address[]"
        }
      ],
      "stateMutability": "view",
      "type": "function"
    },
    {
      "inputs": [
        {
          "internalType": "uint256",
          "name": "proposal",
          "type": "uint256"
        }
      ],
      "name": "vote",
      "outputs": [],
      "stateMutability": "payable",
      "type": "function"
    },
    {
      "inputs": [
        {
          "internalType": "address",
          "name": "",
          "type": "address"
        }
      ],
      "name": "votes",
      "outputs": [
        {
          "internalType": "uint256",
          "name": "",
          "type": "uint256"
        }
      ],
      "stateMutability": "view",
      "type": "function"
    }
  ],
  "bytecode": "0x60806040523480156200001157600080fd5b50604051620018e2380380620018e28339818101604052810190620000379190620004c5565b80600190805190602001906200004f9291906200017c565b50600060405180602001604052806040518060400160405280600e81526020017f454d5054592050524f504f53414c000000000000000000000000000000000000815250815250908060018154018082558091505060019003906000526020600020016000909190919091506000820151816000019080519060200190620000d99291906200017c565b50505060005b82518110156200017357600060405180602001604052808584815181106200010c576200010b6200054a565b5b60200260200101518152509080600181540180825580915050600190039060005260206000200160009091909190915060008201518160000190805190602001906200015a9291906200017c565b50505080806200016a90620005b2565b915050620000df565b50505062000665565b8280546200018a906200062f565b90600052602060002090601f016020900481019282620001ae5760008555620001fa565b82601f10620001c957805160ff1916838001178555620001fa565b82800160010185558215620001fa579182015b82811115620001f9578251825591602001919060010190620001dc565b5b5090506200020991906200020d565b5090565b5b80821115620002285760008160009055506001016200020e565b5090565b6000604051905090565b600080fd5b600080fd5b600080fd5b6000601f19601f8301169050919050565b7f4e487b7100000000000000000000000000000000000000000000000000000000600052604160045260246000fd5b620002908262000245565b810181811067ffffffffffffffff82111715620002b257620002b162000256565b5b80604052505050565b6000620002c76200022c565b9050620002d5828262000285565b919050565b600067ffffffffffffffff821115620002f857620002f762000256565b5b602082029050602081019050919050565b600080fd5b600080fd5b600067ffffffffffffffff82111562000331576200033062000256565b5b6200033c8262000245565b9050602081019050919050565b60005b83811015620003695780820151818401526020810190506200034c565b8381111562000379576000848401525b50505050565b600062000396620003908462000313565b620002bb565b905082815260208101848484011115620003b557620003b46200030e565b5b620003c284828562000349565b509392505050565b600082601f830112620003e257620003e162000240565b5b8151620003f48482602086016200037f565b91505092915050565b6000620004146200040e84620002da565b620002bb565b905080838252602082019050602084028301858111156200043a576200043962000309565b5b835b818110156200048857805167ffffffffffffffff81111562000463576200046262000240565b5b808601620004728982620003ca565b855260208501945050506020810190506200043c565b5050509392505050565b600082601f830112620004aa57620004a962000240565b5b8151620004bc848260208601620003fd565b91505092915050565b60008060408385031215620004df57620004de62000236565b5b600083015167ffffffffffffffff8111156200050057620004ff6200023b565b5b6200050e8582860162000492565b925050602083015167ffffffffffffffff8111156200053257620005316200023b565b5b6200054085828601620003ca565b9150509250929050565b7f4e487b7100000000000000000000000000000000000000000000000000000000600052603260045260246000fd5b7f4e487b7100000000000000000000000000000000000000000000000000000000600052601160045260246000fd5b6000819050919050565b6000620005bf82620005a8565b91507fffffffffffffffffffffffffffffffffffffffffffffffffffffffffffffffff821415620005f557620005f462000579565b5b600182019050919050565b7f4e487b7100000000000000000000000000000000000000000000000000000000600052602260045260246000fd5b600060028204905060018216806200064857607f821691505b602082108114156200065f576200065e62000600565b5b50919050565b61126d80620006756000396000f3fe60806040526004361061007b5760003560e01c806362564c481161004e57806362564c481461012f578063b1e7a1f01461015a578063ccfd945c14610197578063d8bff5a5146101d55761007b565b80630121b93f146100805780630242f3511461009c5780631a092541146100c7578063333b28be146100f2575b600080fd5b61009a60048036038101906100959190610ba1565b610212565b005b3480156100a857600080fd5b506100b1610621565b6040516100be9190610bdd565b60405180910390f35b3480156100d357600080fd5b506100dc610668565b6040516100e99190610c91565b60405180910390f35b3480156100fe57600080fd5b5061011960048036038101906101149190610d11565b6106fa565b6040516101269190610d59565b60405180910390f35b34801561013b57600080fd5b506101446107aa565b6040516101519190610eaa565b60405180910390f35b34801561016657600080fd5b50610181600480360381019061017c9190610ba1565b610897565b60405161018e9190610edb565b60405180910390f35b3480156101a357600080fd5b506101be60048036038101906101b99190610ba1565b6108d6565b6040516101cc929190610fde565b60405180910390f35b3480156101e157600080fd5b506101fc60048036038101906101f79190610d11565b610a42565b6040516102099190610bdd565b60405180910390f35b60016000805490506102249190611044565b81111561023057600080fd5b3373ffffffffffffffffffffffffffffffffffffffff167fa7d8a52d379fe42a0c9a27542d0670acc61e170cf5ad80cc7df6b1665c2f10786000838154811061027c5761027b611078565b5b90600052602060002001600001604051610296919061119d565b60405180910390a260006102a9336106fa565b90506000600260003373ffffffffffffffffffffffffffffffffffffffff1673ffffffffffffffffffffffffffffffffffffffff16815260200190815260200160002054905081610358576003339080600181540180825580915050600190039060005260206000200160009091909190916101000a81548173ffffffffffffffffffffffffffffffffffffffff021916908373ffffffffffffffffffffffffffffffffffffffff1602179055505b82600260003373ffffffffffffffffffffffffffffffffffffffff1673ffffffffffffffffffffffffffffffffffffffff1681526020019081526020016000208190555060046000848152602001908152602001600020339080600181540180825580915050600190039060005260206000200160009091909190916101000a81548173ffffffffffffffffffffffffffffffffffffffff021916908373ffffffffffffffffffffffffffffffffffffffff160217905550811561061c57600067ffffffffffffffff811115610431576104306111bf565b5b60405190808252806020026020018201604052801561045f5781602001602082028036833780820191505090505b5060059080519060200190610475929190610a5a565b5060005b60046000838152602001908152602001600020805490508110156105965760006004600084815260200190815260200160002082815481106104be576104bd611078565b5b9060005260206000200160009054906101000a900473ffffffffffffffffffffffffffffffffffffffff1690503373ffffffffffffffffffffffffffffffffffffffff168173ffffffffffffffffffffffffffffffffffffffff1614610582576005819080600181540180825580915050600190039060005260206000200160009091909190916101000a81548173ffffffffffffffffffffffffffffffffffffffff021916908373ffffffffffffffffffffffffffffffffffffffff1602179055505b50808061058e906111ee565b915050610479565b506005600460008381526020019081526020016000209080546105ba929190610ae4565b50600067ffffffffffffffff8111156105d6576105d56111bf565b5b6040519080825280602002602001820160405280156106045781602001602082028036833780820191505090505b506005908051906020019061061a929190610a5a565b505b505050565b6000600260003373ffffffffffffffffffffffffffffffffffffffff1673ffffffffffffffffffffffffffffffffffffffff16815260200190815260200160002054905090565b606060018054610677906110d6565b80601f01602080910402602001604051908101604052809291908181526020018280546106a3906110d6565b80156106f05780601f106106c5576101008083540402835291602001916106f0565b820191906000526020600020905b8154815290600101906020018083116106d357829003601f168201915b5050505050905090565b600080600090505b6003805490508110156107a45760006003828154811061072557610724611078565b5b9060005260206000200160009054906101000a900473ffffffffffffffffffffffffffffffffffffffff1690508073ffffffffffffffffffffffffffffffffffffffff168473ffffffffffffffffffffffffffffffffffffffff1614156107905760019250506107a4565b50808061079c906111ee565b915050610702565b50919050565b60606000805480602002602001604051908101604052809291908181526020016000905b8282101561088e578382906000526020600020016040518060200160405290816000820180546107fd906110d6565b80601f0160208091040260200160405190810160405280929190818152602001828054610829906110d6565b80156108765780601f1061084b57610100808354040283529160200191610876565b820191906000526020600020905b81548152906001019060200180831161085957829003601f168201915b505050505081525050815260200190600101906107ce565b50505050905090565b600381815481106108a757600080fd5b906000526020600020016000915054906101000a900473ffffffffffffffffffffffffffffffffffffffff1681565b6108de610b36565b6060600083815481106108f4576108f3611078565b5b90600052602060002001600460008581526020019081526020016000208160405180602001604052908160008201805461092d906110d6565b80601f0160208091040260200160405190810160405280929190818152602001828054610959906110d6565b80156109a65780601f1061097b576101008083540402835291602001916109a6565b820191906000526020600020905b81548152906001019060200180831161098957829003601f168201915b505050505081525050915080805480602002602001604051908101604052809291908181526020018280548015610a3257602002820191906000526020600020905b8160009054906101000a900473ffffffffffffffffffffffffffffffffffffffff1673ffffffffffffffffffffffffffffffffffffffff16815260200190600101908083116109e8575b5050505050905091509150915091565b60026020528060005260406000206000915090505481565b828054828255906000526020600020908101928215610ad3579160200282015b82811115610ad25782518260006101000a81548173ffffffffffffffffffffffffffffffffffffffff021916908373ffffffffffffffffffffffffffffffffffffffff16021790555091602001919060010190610a7a565b5b509050610ae09190610b49565b5090565b828054828255906000526020600020908101928215610b255760005260206000209182015b82811115610b24578254825591600101919060010190610b09565b5b509050610b329190610b49565b5090565b6040518060200160405280606081525090565b5b80821115610b62576000816000905550600101610b4a565b5090565b600080fd5b6000819050919050565b610b7e81610b6b565b8114610b8957600080fd5b50565b600081359050610b9b81610b75565b92915050565b600060208284031215610bb757610bb6610b66565b5b6000610bc584828501610b8c565b91505092915050565b610bd781610b6b565b82525050565b6000602082019050610bf26000830184610bce565b92915050565b600081519050919050565b600082825260208201905092915050565b60005b83811015610c32578082015181840152602081019050610c17565b83811115610c41576000848401525b50505050565b6000601f19601f8301169050919050565b6000610c6382610bf8565b610c6d8185610c03565b9350610c7d818560208601610c14565b610c8681610c47565b840191505092915050565b60006020820190508181036000830152610cab8184610c58565b905092915050565b600073ffffffffffffffffffffffffffffffffffffffff82169050919050565b6000610cde82610cb3565b9050919050565b610cee81610cd3565b8114610cf957600080fd5b50565b600081359050610d0b81610ce5565b92915050565b600060208284031215610d2757610d26610b66565b5b6000610d3584828501610cfc565b91505092915050565b60008115159050919050565b610d5381610d3e565b82525050565b6000602082019050610d6e6000830184610d4a565b92915050565b600081519050919050565b600082825260208201905092915050565b6000819050602082019050919050565b600082825260208201905092915050565b6000610dbc82610bf8565b610dc68185610da0565b9350610dd6818560208601610c14565b610ddf81610c47565b840191505092915050565b60006020830160008301518482036000860152610e078282610db1565b9150508091505092915050565b6000610e208383610dea565b905092915050565b6000602082019050919050565b6000610e4082610d74565b610e4a8185610d7f565b935083602082028501610e5c85610d90565b8060005b85811015610e985784840389528151610e798582610e14565b9450610e8483610e28565b925060208a01995050600181019050610e60565b50829750879550505050505092915050565b60006020820190508181036000830152610ec48184610e35565b905092915050565b610ed581610cd3565b82525050565b6000602082019050610ef06000830184610ecc565b92915050565b60006020830160008301518482036000860152610f138282610db1565b9150508091505092915050565b600081519050919050565b600082825260208201905092915050565b6000819050602082019050919050565b610f5581610cd3565b82525050565b6000610f678383610f4c565b60208301905092915050565b6000602082019050919050565b6000610f8b82610f20565b610f958185610f2b565b9350610fa083610f3c565b8060005b83811015610fd1578151610fb88882610f5b565b9750610fc383610f73565b925050600181019050610fa4565b5085935050505092915050565b60006040820190508181036000830152610ff88185610ef6565b9050818103602083015261100c8184610f80565b90509392505050565b7f4e487b7100000000000000000000000000000000000000000000000000000000600052601160045260246000fd5b600061104f82610b6b565b915061105a83610b6b565b92508282101561106d5761106c611015565b5b828203905092915050565b7f4e487b7100000000000000000000000000000000000000000000000000000000600052603260045260246000fd5b7f4e487b7100000000000000000000000000000000000000000000000000000000600052602260045260246000fd5b600060028204905060018216806110ee57607f821691505b60208210811415611102576111016110a7565b5b50919050565b60008190508160005260206000209050919050565b6000815461112a816110d6565b6111348186610c03565b9450600182166000811461114f576001811461116157611194565b60ff1983168652602086019350611194565b61116a85611108565b60005b8381101561118c5781548189015260018201915060208101905061116d565b808801955050505b50505092915050565b600060208201905081810360008301526111b7818461111d565b905092915050565b7f4e487b7100000000000000000000000000000000000000000000000000000000600052604160045260246000fd5b60006111f982610b6b565b91507fffffffffffffffffffffffffffffffffffffffffffffffffffffffffffffffff82141561122c5761122b611015565b5b60018201905091905056fea2646970667358221220bcc7307a49db1d96f77847fbb93d5bc9c8d102a8e2b4b2dc8ecf4025ffa8d77c64736f6c63430008090033",
  "linkReferences": {},
  "deployedLinkReferences": {}
}